:020000040800F2
:1060000000FC0020A5C9000821CA0008ADCA00088C
:1060100019CB00081BCB00081DCB000800000000B6
:106020000000000000000000000000001FCB00087E
:1060300021CB00080000000023CB000823CB000880
:10604000F5C90008F5C9000841CB0008F5C90008EA
:10605000F5C90008F5C9000897CB00089DCB0008DA
:10606000A3CB0008A9CB0008AFCB00084DCB00089C
:1060700059CB000865CB000871CB0008F5C90008B2
:10608000F5C90008F5C90008F5C90008F5C90008F8
:10609000F5C90008F5C90008B5CB0008F5C9000826
:1060A000F5C90008F5C90008F5C90008F5C90008D8
:1060B000F5C90008F5C90008F5C90008F5C90008C8
:1060C00061CC00086DCC0008F5C90008F5C90008CE
:1060D0007DCB000895CB000849CC0008F5C9000825
:1060E000F5C90008F5CB000829CB0008F5C9000860
:1060F000F5C90008F5C90008F5C90008F5C9000888
:10610000F5C90008F5C9000835CB000879CC0008AE
:10611000F5C90008F5C90008F5C90008F5C9000867
:10612000F5C90008F5C90008F5C90008F5C9000857
:08613000F5C90008F5C90008DB
:1061400010B5054C237833B9044B13B10448AFF3B1
:1061500000800123237010BD900E0020000000007D
:10616000F8F8020808B5034B1BB103490348AFF325
:10617000008008BD00000000940E0020F8F802081E
:1061800010F8012B11F8013B012A28BF9A42F7D0E1
:10619000D01A7047034613F8012B002AFBD1181AB6
:1061A00001387047000000000000000000000000FF
:1061B00001F0FF01102A2BDB10F0070F08D010F8B8
:1061C000013B013A8B422DD010F0070F42B3F6D1BC
:1061D000F0B441EA012141EA014122F007047FF0D5
:1061E00000070023F0E80256083C85EA010586EA2C
:1061F000010685FA47F5A3FA87F586FA47F6A5FA68
:1062000087F68EB9EED1F0BC01F0FF0102F0070273
:1062100032B110F8013B013A83EA010313B1F8D11E
:106220000020704701387047002D06BF35460338FF
:10623000073815F0010F07D1013015F4807F02BF38
:10624000013015F4C03F0130F0BC0138704700BF89
:1062500081F0004102E000BF83F0004330B54FEA17
:1062600041044FEA430594EA050F08BF90EA020F84
:106270001FBF54EA000C55EA020C7FEA645C7FEA17
:10628000655C00F0E2804FEA5454D4EB5555B8BF3A
:106290006D420CDD2C4480EA020281EA030382EAAB
:1062A000000083EA010180EA020281EA0303362D3D
:1062B00088BF30BD11F0004F4FEA01314FF4801C10
:1062C0004CEA113102D0404261EB410113F0004F22
:1062D0004FEA03334CEA133302D0524263EB4303D9
:1062E00094EA050F00F0A780A4F10104D5F1200E77
:1062F0000DDB02FA0EFC22FA05F2801841F10001D2
:1063000003FA0EF2801843FA05F359410EE0A5F1A5
:1063100020050EF1200E012A03FA0EFC28BF4CF0D6
:10632000020C43FA05F3C01851EBE37101F000458C
:1063300007D54FF0000EDCF1000C7EEB00006EEB99
:106340000101B1F5801F1BD3B1F5001F0CD3490823
:106350005FEA30004FEA3C0C04F101044FEA44527A
:1063600012F5800F80F09A80BCF1004F08BF5FEA01
:10637000500C50F1000041EB045141EA050130BDE1
:106380005FEA4C0C404141EB0101013C28BFB1F5F3
:10639000801FE9D291F0000F04BF01460020B1FA3E
:1063A00081F308BF2033A3F10B03B3F120020CDA11
:1063B0000C3208DD02F1140CC2F10C0201FA0CF0EF
:1063C00021FA02F10CE002F11402D8BFC2F1200C54
:1063D00001FA02F120FA0CFCDCBF41EA0C0190400A
:1063E000E41AA2BF01EB0451294330BD6FEA040453
:1063F0001F3C1CDA0C340EDC04F11404C4F120023E
:1064000020FA04F001FA02F340EA030021FA04F34F
:1064100045EA030130BDC4F10C04C4F1200220FAA6
:1064200002F001FA04F340EA0300294630BD21FAE4
:1064300004F0294630BD94F0000F83F4801306BFAA
:1064400081F480110134013D4EE77FEA645C18BF9E
:106450007FEA655C29D094EA050F08BF90EA020F35
:1064600005D054EA000C04BF1946104630BD91EA2D
:10647000030F1EBF0021002030BD5FEA545C05D130
:106480004000494128BF41F0004130BD14F580046F
:106490003CBF01F5801130BD01F0004545F0FE41E3
:1064A00041F470014FF0000030BD7FEA645C1ABF18
:1064B000194610467FEA655C1CBF0B46024650EA4F
:1064C000013406BF52EA033591EA030F41F400217B
:1064D00030BD00BF90F0000F04BF0021704730B501
:1064E0004FF4806404F132044FF000054FF00001D6
:1064F00050E700BF90F0000F04BF0021704730B597
:106500004FF4806404F1320410F0004548BF40426B
:106510004FF000013EE700BF42004FEAE2014FEAC0
:1065200031014FEA02701FBF12F07F4393F07F4F9B
:1065300081F06051704732F07F4208BF704793F09E
:106540007F4F04BF41F40021704730B54FF46074B1
:1065500001F0004521F000411CE700BF50EA0102B4
:1065600008BF704730B54FF000050AE050EA01025D
:1065700008BF704730B511F0004502D5404261EBCD
:1065800041014FF4806404F132045FEA915C3FF40E
:10659000D8AE4FF003025FEADC0C18BF03325FEAAB
:1065A000DC0C18BF033202EBDC02C2F1200300FA5C
:1065B00003FC20FA02F001FA03FE40EA0E0021FA81
:1065C00002F11444BDE600BF70B54FF0FF0C4CF46F
:1065D000E06C1CEA11541DBF1CEA135594EA0C0F21
:1065E00095EA0C0F00F0DEF82C4481EA030621EA5C
:1065F0004C5123EA4C5350EA013518BF52EA033597
:1066000041F4801143F4801338D0A0FB02CE4FF048
:106610000005E1FB02E506F00042E0FB03E54FF078
:106620000006E1FB03569CF0000F18BF4EF0010E70
:10663000A4F1FF04B6F5007F64F5407404D25FEA6C
:106640004E0E6D4146EB060642EAC62141EA55511F
:106650004FEAC52040EA5E504FEACE2EB4F1FD0C61
:1066600088BFBCF5E06F1ED8BEF1004F08BF5FEADF
:10667000500E50F1000041EB045170BD06F0004691
:1066800046EA010140EA020081EA0301B4EB5C043E
:10669000C2BFD4EB0C0541EA045170BD41F4801136
:1066A0004FF0000E013C00F3AB8014F1360FDEBF5B
:1066B000002001F0004170BDC4F10004203C35DA37
:1066C0000C341BDC04F11404C4F1200500FA05F3BA
:1066D00020FA04F001FA05F240EA020001F000425B
:1066E00021F0004110EBD37021FA04F642EB0601D1
:1066F0005EEA430E08BF20EAD37070BDC4F10C04FB
:10670000C4F1200500FA04F320FA05F001FA04F2BE
:1067100040EA020001F0004110EBD37041F10001AA
:106720005EEA430E08BF20EAD37070BDC4F12005B5
:1067300000FA05F24EEA020E20FA04F301FA05F21D
:1067400043EA020321FA04F001F0004121FA04F2C5
:1067500020EA020000EBD3705EEA430E08BF20EA95
:10676000D37070BD94F0000F0FD101F000464000CF
:1067700041EB010111F4801F08BF013CF7D041EA51
:10678000060195F0000F18BF704703F00046520055
:1067900043EB030313F4801F08BF013DF7D043EA26
:1067A0000603704794EA0C0F0CEA135518BF95EADC
:1067B0000C0F0CD050EA410618BF52EA4306D1D163
:1067C00081EA030101F000414FF0000070BD50EA82
:1067D000410606BF1046194652EA430619D094EA0C
:1067E0000C0F02D150EA013613D195EA0C0F05D1F6
:1067F00052EA03361CBF104619460AD181EA03014A
:1068000001F0004141F0FE4141F470014FF0000001
:1068100070BD41F0FE4141F4780170BD70B54FF09C
:10682000FF0C4CF4E06C1CEA11541DBF1CEA13551C
:1068300094EA0C0F95EA0C0F00F0A7F8A4EB0504FE
:1068400081EA030E52EA03354FEA013100F08880F5
:106850004FEA03334FF0805545EA131343EA1263BE
:106860004FEA022245EA111545EA10654FEA002673
:106870000EF000419D4208BF964244F1FD0404F52C
:10688000407402D25B084FEA3202B61A65EB030588
:106890005B084FEA32024FF480104FF4002CB6EB45
:1068A000020E75EB030E22BFB61A754640EA0C00C5
:1068B0005B084FEA3202B6EB020E75EB030E22BF05
:1068C000B61A754640EA5C005B084FEA3202B6EB46
:1068D000020E75EB030E22BFB61A754640EA9C0005
:1068E0005B084FEA3202B6EB020E75EB030E22BFD5
:1068F000B61A754640EADC0055EA060E18D04FEA93
:10690000051545EA16754FEA06164FEAC30343EA32
:1069100052734FEAC2025FEA1C1CC0D111F4801FFF
:106920000BD141EA00014FF000004FF0004CB6E7F8
:1069300011F4801F04BF01430020B4F1FD0C88BF97
:10694000BCF5E06F3FF6AFAEB5EB030C04BFB6EBA2
:10695000020C5FEA500C50F1000041EB045170BD95
:106960000EF0004E4EEA113114EB5C04C2BFD4EBC2
:106970000C0541EA045170BD41F480114FF0000E46
:10698000013C90E645EA060E8DE60CEA135594EAC2
:106990000C0F08BF95EA0C0F3FF43BAF94EA0C0FC5
:1069A0000AD150EA01347FF434AF95EA0C0F7FF43A
:1069B00025AF104619462CE795EA0C0F06D152EA8E
:1069C00003353FF4FDAE1046194622E750EA410672
:1069D00018BF52EA43067FF4C5AE50EA41047FF483
:1069E0000DAF52EA43057FF4EBAE12E74FF0FF3CE8
:1069F00006E000BF4FF0010C02E000BF4FF0010CB9
:106A00004DF804CD4FEA410C7FEA6C5C4FEA430C31
:106A100018BF7FEA6C5C1BD001B050EA410C0CBF80
:106A200052EA430C91EA030F02BF90EA020F0020E2
:106A3000704710F1000F91EA030F58BF994208BF49
:106A400090422CBFD8176FEAE37040F00100704706
:106A50004FEA410C7FEA6C5C02D150EA013C07D15D
:106A60004FEA430C7FEA6C5CD6D152EA033CD3D0A8
:106A70005DF8040B704700BF8446104662468C46A2
:106A80001946634600E000BF01B5FFF7B7FF0028D5
:106A900048BF10F1000F01BD4DF808EDFFF7F4FFFE
:106AA0000CBF012000205DF808FB00BF4DF808ED89
:106AB000FFF7EAFF34BF012000205DF808FB00BFAC
:106AC0004DF808EDFFF7E0FF94BF012000205DF8CE
:106AD00008FB00BF4DF808EDFFF7CEFF94BF012083
:106AE00000205DF808FB00BF4DF808EDFFF7C4FF7C
:106AF00034BF012000205DF808FB00BF4FEA410CC5
:106B00007FEA6C5C02D150EA013C0AD14FEA430CA7
:106B10007FEA6C5C02D152EA033C02D14FF00000E4
:106B200070474FF0010070474FEA410212F5001222
:106B300015D211D56FF47873B3EB625212D94FEAC4
:106B4000C12343F0004343EA505311F0004F23FAAE
:106B500002F018BF404270474FF00000704750EA03
:106B6000013005D111F0004008BF6FF000407047C0
:106B70004FF00000704700BF4A0011D212F500121A
:106B800011D20DD56FF47873B3EB62520ED44FEA85
:106B9000C12343F0004343EA505323FA02F0704705
:106BA0004FF00000704750EA013002D14FF0FF3043
:106BB00070474FF00000704780F0004002E000BFD7
:106BC00081F0004142001FBF5FEA410392EA030FD8
:106BD0007FEA226C7FEA236C6AD04FEA1262D2EB22
:106BE0001363C1BFD218414048404140B8BF5B4227
:106BF000192B88BF704710F0004F40F4000020F0C0
:106C00007F4018BF404211F0004F41F4000121F0D5
:106C10007F4118BF494292EA030F3FD0A2F101021F
:106C200041FA03FC10EB0C00C3F1200301FA03F15D
:106C300000F0004302D5494260EB4000B0F5000F80
:106C400013D3B0F1807F06D340084FEA310102F13F
:106C50000102FE2A51D2B1F1004F40EBC25008BFF1
:106C600020F0010040EA03007047490040EB0000BB
:106C7000013A28BFB0F5000FEDD2B0FA80FCACF1BC
:106C8000080CB2EB0C0200FA0CF0AABF00EBC250E9
:106C900052421843BCBFD0401843704792F0000FD7
:106CA00081F4000106BF80F400000132013BB5E72A
:106CB0004FEA41037FEA226C18BF7FEA236C21D0A0
:106CC00092EA030F04D092F0000F08BF0846704705
:106CD00090EA010F1CBF0020704712F07F4F04D1D3
:106CE000400028BF40F00040704712F100723CBFE6
:106CF00000F50000704700F0004343F0FE4040F410
:106D0000000070477FEA226216BF08467FEA2363CD
:106D10000146420206BF5FEA412390EA010F40F4B8
:106D2000800070474FF0000304E000BF10F0004304
:106D300048BF40425FEA000C08BF704743F09643EB
:106D400001464FF000001CE050EA010208BF704706
:106D50004FF000030AE000BF50EA010208BF70478D
:106D600011F0004302D5404261EB41015FEA010CA2
:106D700002BF84460146002043F0B64308BFA3F19A
:106D80008053A3F50003BCFA8CF2083AA3EBC2537C
:106D900010DB01FA02FC634400FA02FCC2F120029B
:106DA000BCF1004F20FA02F243EB020008BF20F0D2
:106DB0000100704702F1200201FA02FCC2F1200238
:106DC00050EA4C0021FA02F243EB020008BF20EA2D
:106DD000DC7070474FF0FF0C1CEAD0521EBF1CEA5B
:106DE000D15392EA0C0F93EA0C0F6FD01A4480EA49
:106DF000010C400218BF5FEA41211ED04FF0006332
:106E000043EA501043EA5111A0FB01310CF000405D
:106E1000B1F5000F3EBF490041EAD3715B0040EA83
:106E2000010062F17F02FD2A1DD8B3F1004F40EB53
:106E3000C25008BF20F00100704790F0000F0CF026
:106E4000004C08BF49024CEA502040EA51207F3AEA
:106E5000C2BFD2F1FF0340EAC250704740F40000C5
:106E60004FF00003013A5DDC12F1190FDCBF00F0B6
:106E700000407047C2F10002410021FA02F1C2F164
:106E8000200200FA02FC5FEA310040F1000053EA00
:106E90004C0308BF20EADC70704792F0000F00F04E
:106EA000004C02BF400010F4000F013AF9D040EA54
:106EB0000C0093F0000F01F0004C02BF490011F4E8
:106EC000000F013BF9D041EA0C018FE70CEAD153E6
:106ED00092EA0C0F18BF93EA0C0F0AD030F0004C66
:106EE00018BF31F0004CD8D180EA010000F000401A
:106EF000704790F0000F17BF90F0004F084691F0D8
:106F0000000F91F0004F14D092EA0C0F01D1420211
:106F10000FD193EA0C0F03D14B0218BF084608D1DA
:106F200080EA010000F0004040F0FE4040F4000024
:106F3000704740F0FE4040F4400070474FF0FF0CB7
:106F40001CEAD0521EBF1CEAD15392EA0C0F93EAFE
:106F50000C0F69D0A2EB030280EA010C49024FEA50
:106F6000402037D04FF0805343EA111143EA101309
:106F70000CF000408B4238BF5B0042F17D024FF4C1
:106F8000000C8B4224BF5B1A40EA0C00B3EB510F9C
:106F900024BFA3EB510340EA5C00B3EB910F24BF85
:106FA000A3EB910340EA9C00B3EBD10F24BFA3EB0A
:106FB000D10340EADC001B0118BF5FEA1C1CE0D1D2
:106FC000FD2A3FF650AF8B4240EBC25008BF20F085
:106FD000010070470CF0004C4CEA50207F32C2BFD9
:106FE000D2F1FF0340EAC250704740F400004FF076
:106FF0000003013A37E792F0000F00F0004C02BFA7
:10700000400010F4000F013AF9D040EA0C0093F070
:10701000000F01F0004C02BF490011F4000F013BCA
:10702000F9D041EA0C0195E70CEAD15392EA0C0F32
:1070300008D142027FF47DAF93EA0C0F7FF470AF6A
:10704000084676E793EA0C0F04D14B023FF44CAFAD
:1070500008466EE730F0004C18BF31F0004CCAD142
:1070600030F000427FF45CAF31F000437FF43CAF7E
:107070005FE700BF4FF0FF3C06E000BF4FF0010CA0
:1070800002E000BF4FF0010C4DF804CD4FEA400282
:107090004FEA41037FEA226C18BF7FEA236C11D0CC
:1070A00001B052EA530C18BF90EA010F58BFB2EB7F
:1070B000030088BFC81738BF6FEAE17018BF40F0FF
:1070C000010070477FEA226C02D15FEA402C05D1B3
:1070D0007FEA236CE4D15FEA412CE1D05DF8040B38
:1070E000704700BF844608466146FFE70FB5FFF7CB
:1070F000C9FF002848BF10F1000F0FBD4DF808ED83
:10710000FFF7F4FF0CBF012000205DF808FB00BF73
:107110004DF808EDFFF7EAFF34BF012000205DF8CD
:1071200008FB00BF4DF808EDFFF7E0FF94BF01201A
:1071300000205DF808FB00BF4DF808EDFFF7D2FF17
:1071400094BF012000205DF808FB00BF4DF808ED5A
:10715000FFF7C8FF34BF012000205DF808FB00BF27
:1071600053B94AB9002908BF00281CBF4FF0FF31AE
:107170004FF0FF3000F06CB9ADF1080C6DE904CEB2
:1071800000F006F8DDF804E0DDE9022304B0704702
:107190002DE9F047089E0D4604468E46002B40F030
:1071A00082808A42174646D9B2FA82F24AB1C2F1C7
:1071B000200105FA02F320FA01F1974041EA030E9B
:1071C00094404FEA1748230CBEFBF8FCB9B208FB09
:1071D0001CEE43EA0E430CFB01F098420AD9FB185F
:1071E0000CF1FF3580F01681984240F21381ACF12A
:1071F000020C3B441B1AA4B2B3FBF8F008FB10339B
:1072000044EA034400FB01F1A14209D93C1900F111
:10721000FF3380F00181A14240F2FE8002383C44FD
:10722000641A40EA0C4000211EB1D4400023C6E994
:107230000043BDE8F08702B9FFDEB2FA82F2002A0D
:107240004FD1CB1B4FEA174E1FFA87F80121B3FB32
:10725000FEFC250C0EFB1C3345EA034508FB0CF332
:10726000AB4207D97D190CF1FF3002D2AB4200F2DC
:10727000E7808446ED1AA3B2B5FBFEF00EFB105575
:1072800043EA054408FB00F8A04507D93C1900F182
:10729000FF3302D2A04500F2D7801846A4EB0804C1
:1072A00040EA0C40C0E78B4208D9002E00F0AF80C6
:1072B0000021C6E900050846BDE8F087B3FA83F16E
:1072C00000294BD1AB4202D3824200F2B780841A2C
:1072D00065EB030301209E46002EAAD0C6E9004EAE
:1072E000A7E7C2F1200C01FA02F3974020FA0CF054
:1072F0004FEA174E21FA0CFC1843BCFBFEF1050CBB
:107300000EFB11CC1FFA87F845EA0C4501FB08F388
:10731000AB4204FA02F409D97D1901F1FF3C80F077
:107320008B80AB4240F2888002393D44EB1A85B233
:10733000B3FBFEF00EFB103345EA034500FB08F3F8
:10734000AB4207D97D1900F1FF3C71D2AB426FD936
:1073500002383D44EB1A40EA014178E7C1F1200CC4
:107360008B4022FA0CF71F4320FA0CF405FA01F3C4
:107370004FEA174E25FA0CF51C43230CB5FBFEF91A
:107380001FFA87F80EFB195543EA054509FB08FA71
:10739000AA4502FA01F200FA01F308D97D1909F1B0
:1073A000FF3047D2AA4545D9A9F102093D44A5EBD2
:1073B0000A05A4B2B5FBFEF00EFB105544EA0544E5
:1073C00000FB08F8A04507D93C1900F1FF352DD284
:1073D000A0452BD902383C4440EA0940A4EB0804FC
:1073E000A0FB02894C45C6464D4619D316D05EB166
:1073F000B3EB0E0264EB050404FA0CFCCA404CEA41
:107400000202CC40C6E900240021BDE8F0873146E5
:1074100030460EE7AC46EDE6184601E74345E6D2B6
:10742000B8EB020E69EB07050138E0E72846D3E721
:1074300060468FE78146BAE7614677E708464BE743
:10744000ACF1020C3D4415E702383C4426E700BF8E
:10745000704700BF0020704738B590F833300446BD
:107460000D4613B1406B07F0FFFB94F83010606BD2
:1074700007F012FC606B802100F02DF8606B036850
:1074800029461B689847606B0121BDE8384007F02A
:107490000FBC000010B5034B0360044602F010F966
:1074A000204610BD6CFA020810B50446406B07F088
:1074B000DBFB606B024907F0EBFB012010BD00BF56
:1074C000801A060010B50446FFF7E4FF204605F0D9
:1074D0004DFA204610BD0368C9B21B6818472DE954
:1074E000F84F90F83330044613B1406B07F0BCFB03
:1074F000658AC5F180054FF0000A05EBD575FF27B9
:107500006D10D146D0463E46A38A5FFA8AF1B1EBB0
:10751000D30F28DA4FF0000C638A5FFA8CF09842A0
:107520001CDA11FB03F30344A2689BB212F803E0D8
:10753000E26812F803B0F3450BD08E4228BF0E4626
:10754000884538BF8846874228BF0746814538BFEF
:10755000814602F803E00CF1010CDDE707F04FFA79
:107560000AF1010AD0E7FF2E57D0236821219B6939
:1075700020469847236857FA85F19B69C9B220468F
:1075800098475FFA85FA23680AEB09019B69C9B23B
:1075900020469847236822219B6920469847236804
:1075A00031469B6920469847236841469B6920469F
:1075B00098470025B04529D3BA46CA4521D845B9D0
:1075C00094F83010606B07F067FB606B4021FFF7A9
:1075D00082FFA268606B638A06FB0323026813F8CC
:1075E0000A1012680135EDB29047102D04D1606B7E
:1075F000012107F05DFB00250AF1010A5FFA8AFA12
:10760000DBE7013607F0FBF9F6B2D3E72DB1606B8B
:107610000121BDE8F84F07F04BBBBDE8F88F000033
:1076200038B51548154C07F01FFB4FF4FA7011F0F0
:10763000C1F80125204684F8335002F0CFFB2046E4
:1076400002F09CFA204602F0FDFA204602F092FA7F
:107650002046C82102F0CCFA4023F12220466421C2
:1076600002F090FA0649204602F082FA2046FFF71F
:1076700036FF284638BD00BF141F0020B00E002082
:107680008CFA020870B51A4C1A4986B00646204694
:1076900002F06EFA2046002102F01CF80B250022B1
:1076A000114680232046009502F02DF92046012145
:1076B00002F010F82046002102F058FA314603A8E3
:1076C00007F02AFA002203AB1146204602F0C2FB63
:1076D00003A807F0DBF980232A4600212046009505
:1076E00002F02FF82046FFF7FAFE06B070BD00BF8B
:1076F000B00E00208CFA020813B5094C0021204678
:1077000001F0E8FF402300930C2280230021204653
:1077100002F0F9F8034B00221A7002B010BD00BF4E
:10772000B00E0020AC0E002030B585B004460D46EA
:1077300001A8114607F011FA04EB840252000C3242
:1077400001AB12B22946044802F084FB01A807F0FD
:107750009DF905B030BD00BFB00E002008B502484D
:10776000FFF7BDFE08BD00BFB00E002010B50E4CE7
:10777000204601F029FF0D4B236000231A461946CD
:10778000204684F8333002F071FA40F63C33238609
:107790000C2384F83230064B63632046054A0649C1
:1077A000BDE8104002F016BFB00E00206CFA0208CF
:1077B000141F002000000020957400080000000045
:1077C0002DE9F04F604D2B7887B004467BB1FFF771
:1077D00093FF5E4807F0CEF8FEF79EFE02460B468A
:1077E0005B485C4903F068FC5948FFF74BFF54B90C
:1077F00059495A4807F0B8FA0021084607F001FB3A
:1078000007B0BDE8F08F2478012C40F08781544AFE
:107810002B7892F80880534F534E544DB8F1010F16
:1078200040F0BC80524C002B79D05249484803F0BC
:1078300063FC474903A807F06FF90021084603AA33
:10784000FFF772FF03A807F021F93A684A49404858
:1078500003F032FC3E4903A807F05EF903AA0021B9
:107860004046FFF761FF03A807F010F9434B444976
:107870001A68374803F020FC354903A807F04CF993
:1078800003AA40214046FFF74FFF03A807F0FEF888
:1078900022783C492E4803F00FFC2D4903A807F03D
:1078A0003BF903AA00210220FFF73EFF03A807F0DF
:1078B000EDF832883449264812B203F0FDFB244922
:1078C00003A807F029F903AA00210320FFF72CFFE2
:1078D00003A807F0DBF82A782C491D4852B203F0C0
:1078E000EBFB1B4903A807F017F903AA402103206B
:1078F000FFF71AFF03A807F0C9F82549144803F059
:10790000FBFB134903A807F007F903AA0021042091
:10791000FFF70AFF03A807F0B9F8FFF71FFF1549A3
:107920000E4807F021FA3A68338829780B4849B2A3
:1079300000911BB2174907F021FA2278164907482F
:1079400007F01CFA58E700BFE90E0020D11E002006
:10795000EF0E00203B050308560503081C1E0020FF
:1079600008000020F80F0020EC0E0020EE0E002092
:10797000EA0E00206305030870050308F40F0020D9
:1079800078050308800503088805030890050308A7
:1079900098050308A3050308BF050308002B00F0A2
:1079A0008D809949994803F0A7FB984903A807F0EF
:1079B000B3F80021084603AAFFF7B6FE03A807F0B4
:1079C00065F83A689249914803F076FB8F4903A81D
:1079D00007F0A2F803AA00212046FFF7A5FE03A89E
:1079E00007F054F88B4806F0D4FDFEF773FD84A32E
:1079F000D3E90023FEF712FF0B460246864983486F
:107A000003F05AFB814903A807F086F803AA002176
:107A10000220FFF789FE03A807F038F87F4806F038
:107A2000BAFD7F490246794803F046FB774903A82F
:107A300007F072F803AA00210320FFF775FE03A8E0
:107A400007F024F8774806F0A8FD7D2200FB02220B
:107A500075496E4803F030FB6C4903A807F05CF8E9
:107A600003AA40210320FFF75FFE03A807F00EF8EA
:107A700032886E49654812B203F01EFB634903A8C1
:107A800007F04AF803AA00210420FFF74DFE03A8DF
:107A900006F0FCFF2A7866495C4852B203F00CFB02
:107AA0005A4903A807F038F803AA40210420FFF739
:107AB0003BFE03A806F0EAFFFFF750FE5D495E4873
:107AC00007F052F93A68338829785B4849B21BB20B
:107AD00000915A4907F052F94E4806F05AFD064601
:107AE0004E4806F058FD04464E4806F056FD054641
:107AF0003046FFF717F9FEF70FFD41A3D3E9002346
:107B0000FEF78CFE7D2305FB0333CDE900430246DF
:107B10000B4649484A4907F031F96DE6022C40F01E
:107B2000F5800121084607F06CF92B78454FDFF806
:107B30003481454E002B44D04449344803F0DCFAEC
:107B4000324903A806F0E8FF0021084603AAFFF720
:107B5000EBFD03A806F09AFF3A683D492B4803F075
:107B6000ABFA2A4903A806F0D7FF03AA0021012097
:107B7000FFF7DAFD03A806F089FF3A683549D8F81F
:107B80000030224803F098FA204903A806F0C4FF09
:107B900003AA40210120FFF7C7FD03A806F076FFE6
:107BA00032682D49194803F087FA184903A806F0EE
:107BB000B3FF204603AA0021FFF7B6FD03A806F095
:107BC00065FF22491C4807F0CFF83A6823491A4854
:107BD00007F0D4F832682249174807F0CFF8336825
:107BE000013B0F2B00F29080DFE803F03E707274CF
:107BF00076787A7C7E80828486888A8CAFF3008057
:107C00000000000080842E41C6050308EF0E00200E
:107C1000D4050308071F0020E8050308081F0020FB
:107C2000EF050308091F0020F50503088805030870
:107C3000FB050308020603081C1E0020A305030819
:107C40000F060308F80F0020FC0F0020630503084F
:107C50007005030878050308230603083C0603089B
:107C600047060308F40F00206549664803F044FA0C
:107C7000644A6549654807F081F8D8F800206449EE
:107C8000624807F07BF82B78002B3FF4B5AD5D49D7
:107C900003A806F041FF03AA00210320FFF744FDDB
:107CA00003A806F0F3FE5B49564803F025FA554950
:107CB00003A806F031FF03AA00210420FFF734FDDA
:107CC00003A806F0E3FEFFF749FD95E55249CCE72E
:107CD0005249CAE75249C8E75249C6E75249C4E780
:107CE0005249C2E75249C0E75249BEE75249BCE790
:107CF0005249BAE75249B8E75249B6E75249B4E7A0
:107D00005249B2E75249B0E75249AEE7032C3DD1A0
:107D10002B78002B3FF470AD4F493A4803F0ECF953
:107D2000384903A806F0F8FE002103AA0846FFF729
:107D3000FBFC03A806F0AAFE484903A806F0ECFEE7
:107D400003AA00210120FFF7EFFC03A806F09EFE26
:107D5000424903A806F0E0FE03AA00210220FFF733
:107D6000E3FC03A806F092FE3049264803F0C4F96C
:107D7000244903A806F0D0FE03AA00212046FFF7FD
:107D8000D3FC03A806F082FE344991E7052C69D1A3
:107D90002B78002B3FF430AD2F491A4803F0ACF993
:107DA000184903A806F0B8FE002103AA0846FFF709
:107DB000BBFC03A806F06AFE284903A806F0ACFE47
:107DC00003AA00210120FFF7AFFC03A806F05EFE26
:107DD000224903A806F0A0FE03AA00210220FFF713
:107DE000A3FC03A806F052FE1D49064803F084F9DF
:107DF000044903A806F090FE03AA00210320BEE771
:107E000061060308EF0E00201F2103081C1E00203E
:107E100049070308980503086F0603087A06030854
:107E200086060308920603089C060308A6060308B4
:107E3000B2060308C6060308D9060308E9060308C4
:107E4000F606030800070308100703081E070308C7
:107E50002A0703083B0703085A07030863070308B8
:107E600077070308042C7FF4C7AC2B789B4EDFF810
:107E700004A3DFF804939A4D9A4F002B00F0A080E2
:107E8000994B2978994A9A48DFF8F0B2002918BF2F
:107E90001A46984903F010F9954903A806F03CFEEC
:107EA000002103AA0846FFF73FFC03A806F0EEFDF9
:107EB0002A7802F0FF08002A40F0A1803A788E4923
:107EC0008B4803F0F9F88A4903A806F025FE03AAB7
:107ED00041460120FFF728FC03A806F0D7FD3268D1
:107EE0008649834803F0E8F8814903A806F014FEA8
:107EF00003AA41460220FFF717FC03A806F0C6FDBF
:107F0000DBF800207E497A4803F0D6F8784903A8C8
:107F100006F002FE03AA40210220FFF705FC03A899
:107F200006F0B4FD774B78491A78714803F0C4F82D
:107F30006F4903A806F0F0FD03AA41460320FFF7AE
:107F4000F3FB03A806F0A2FD704806F022FC70497E
:107F50000246674803F0B0F8654903A806F0DCFD67
:107F600003AA40210320FFF7DFFB03A806F08EFDE4
:107F7000BAF8002067495E4812B203F09DF85C49E8
:107F800003A806F0C9FD03AA41462046FFF7CCFB33
:107F900003A806F07BFD99F800205F49544852B2CF
:107FA00003F08AF8524903A806F0B6FD03AA40215F
:107FB0002046FFF7B9FB03A806F068FDFFF7CEFBEC
:107FC0002978494B494A5548002918BF1A4654494F
:107FD00006F0D4FE3268BAF8003099F800104F4825
:107FE00049B200911BB24F4906F0C8FE454B4E49BD
:107FF0001A784A483B7806F0C1FEFFF7FDBB3268AD
:108000003E493B4803F058F8394903A806F084FD7F
:1080100003AA00210120FFF787FB03A806F036FD25
:10802000DBF800203649324803F046F8304903A80F
:1080300006F072FD03AA40210120FFF775FB03A89B
:1080400006F024FD2A783949294803F035F82849F3
:1080500003A806F061FD03AA00210220FFF764FBDC
:1080600003A806F013FD2B78013B0F2B33D8DFE874
:1080700003F0081416181A1C1E20222426282A2C65
:108080002E302B491A4803F037F8194903A806F097
:1080900043FD03AA002103208BE72649F2E7264986
:1080A000F0E72649EEE72649ECE72649EAE72649C4
:1080B000E8E72649E6E72649E4E72649E2E72649D4
:1080C000E0E72649DEE72649DCE72649DAE72649E4
:1080D000D8E72649D6E72649D4E700BFF80F0020A5
:1080E000F10F0020EF0F00203705030838050308C3
:1080F000EF0E00208D0703089E0703087005030894
:1081000078050308F00F0020B1070308E71E0020E0
:10811000BA07030888050308FB0503081C1E002096
:10812000D5070308A3050308E3070308C0070308EE
:10813000610603086F0603087A060308860603082B
:10814000920603089C060308A6060308B206030865
:10815000C6060308D9060308E9060308F60603085D
:1081600000070308100703081E0703082A0703086F
:108170003B070308EC0E0020EE0E0020F40F002059
:108180001FB504AB03E907000121002006F039FE0A
:108190000A4BBDF90A201A80094B9DF90C201A7070
:1081A000084A0948136801331360084B0121FA2279
:1081B000197005B05DF804EB06F00FBCEC0E002062
:1081C000EE0E0020F80F0020D51E0020E80E002043
:1081D0000E4B90F906201A700D4BB0F904201A804E
:1081E0000C4A037813700C4A417811700B4A81785D
:1081F00011701BB10A4A136801331360094B0A4816
:1082000004221A700121FA2206F0E7BBEE0E0020CC
:10821000EC0E0020F10F0020EF0F0020F00F0020E7
:10822000F40F0020E80E0020D51E00201FB51948CD
:1082300006F0ADFA184A1949E0B1194806F09EFD5A
:108240001849174806F09AFD1749154806F096FD9B
:10825000642010F0AFFA154B039308210123CDE9F8
:1082600000311348022303AA042106F0F7F905B0F0
:108270005DF804FB0A4806F081FD0E49084806F047
:108280007DFD0949064806F079FD642010F092FA58
:10829000EDE700BFE31E0020FC0703080008030809
:1082A0001C1E0020060803083929030801020304E4
:1082B000D81E002012080308054B30B103221A70A3
:1082C0000448FA22012106F088BB0522F7E700BF27
:1082D000E80E0020D51E002010B501210446002024
:1082E00006F08FFD0D4BB4F90A201A800C4B94F95F
:1082F0000C201A700B4B62781A700B4A136801330A
:1083000013600A4B1B7843B9094B0A4801211970C5
:10831000BDE81040FA2206F060BB10BDEC0E002054
:10832000EE0E0020EA0E0020F80F002005000020CD
:10833000E80E0020D51E002010B5044618B3124ADE
:108340001249134806F01AFD00221249104806F09F
:1083500015FD11490E4806F011FD642010F02AFAAF
:108360000E4B1C600E4B1B786BB90E4A0E481368FF
:10837000013313600D4B02221A70BDE81040FA223F
:10838000012106F02ABB10BDFC0703080008030802
:108390001C1E00203008030839290308FC0F0020A8
:1083A00005000020F40F0020D51E0020E80E00205C
:1083B000014806F0FEBC00BF6C1E002037B5254A00
:1083C0002549264806F0DAFC2549244806F0D6FC63
:1083D0002449224806F0D2FC642010F0EBF9224B2D
:1083E000224800251D70224B01241C7006F0F3F971
:1083F0002049214806F057F920491F4806F063F943
:108400001F491D4806F057F921461E4806F0A9F9F4
:1084100029461D4806F0CCF93223009316480A235A
:108420002246214606F0FFF890B90A4A0A490B484D
:1084300006F0A4FC1549094806F0A0FC09490748C4
:1084400006F09CFC642003B0BDE8304010F0B2B9E7
:1084500003B030BDFC070308000803081C1E002001
:108460003F0803083929030805000020FB1E0020EF
:1084700004000020D9820008D81E0020398300089B
:10848000B9820008E01E0020FA1E00204E080308F2
:1084900013B5274A2749284806F070FC2749264883
:1084A00006F06CFC2649244806F068FC642010F0B5
:1084B00081F9244B244801241C70244B1C7006F0C5
:1084C0008AF92349234806F0EEF82349214806F0AB
:1084D000FAF822491F4806F0EEF821491D4806F037
:1084E000FAF800211F4806F03CF902211E4806F068
:1084F0005FF93223009317480A232246214606F0EB
:1085000092F890B90A4A0B490B4806F037FC174914
:10851000094806F033FC0A49074806F02FFC64209E
:1085200002B0BDE8104010F045B902B010BD00BF68
:10853000FC070308000803081C1E0020630803084A
:108540003929030805000020FB1E0020040000203C
:10855000D9820008D81E002039830008B98200089B
:10856000D1810008E01E0020FA1E00204E080308FA
:1085700007B5304A3049314806F000FC30492F48F1
:1085800006F0FCFB2F492D4806F0F8FB642010F0A4
:1085900011F92D4B2D4800221A70322300931146F9
:1085A0000A2306F040F878B9224A2349234806F006
:1085B000E5FB2749214806F0E1FB22491F4806F068
:1085C000DDFB642010F0F6F82248002105F0EDFFF5
:1085D00078B9184A1849194806F0D0FB1E491748BF
:1085E00006F0CCFB1749154806F0C8FB642010F0D4
:1085F000E1F81A4805F0F0FF78B90E4A0E490F4825
:1086000006F0BCFB16490D4806F0B8FB0D490B48B7
:1086100006F0B4FB642010F0CDF812490D4805F0C7
:10862000E8FF0C484FF6FD7103B05DF804EB05F070
:10863000BCBF00BFFC070308000803081C1E002085
:10864000780803083929030804000020D81E0020F8
:1086500087080308FC1E00209B080308121F002047
:10866000B1080308818100082DE9F047012186B097
:10867000002006F0AFFB0121084606F0ABFBA04846
:10868000A04C022306224FF4E13105F01BFF01222A
:10869000009200239C499D4802F00EFD9B4903A8CF
:1086A00006F03AFA03A99A4806F042F903A806F040
:1086B000EDF9984806F0D8FAFEF7B2FF207068B1DD
:1086C000954806F057F9FDF727FF02460B468F48FD
:1086D000924902F0F1FC8D48FEF7D4FF0121002001
:1086E00006F08FFB06F099FB854F06464FF0000A17
:1086F000384605F0CDFE0546C8B906F08EFB41F2BE
:108700008732B0EB06086AEB4A090023424573EB57
:1087100009030CDB642010F04DF8284606F076FBC8
:10872000B0FA80F14909284606F06BFBE0E700212A
:10873000084606F066FB0021012006F062FB237864
:108740007BB9774A77496E4806F018FB76496C4842
:1087500006F014FB75496A4806F010FB642010F01F
:1087600029F800F021FC78B96D4A6E49644806F09A
:1087700005FB6F49624806F001FB6C49604806F052
:10878000FDFA642010F016F800F0E2FB78B9644AB4
:1087900064495B4806F0F2FA6649594806F0EEFA79
:1087A0006249574806F0EAFA642010F003F800F036
:1087B000E5FB78B95A4A5B49514806F0DFFA5E4951
:1087C0004F4806F0DBFA59494D4806F0D7FA6420C5
:1087D0000FF0F0FF00F0E4FD78B9514A51494848E4
:1087E00006F0CCFA5549464806F0C8FA4F494448C5
:1087F00006F0C4FA64200FF0DDFF514D2A7A012AF9
:1088000078D0022A79D03AB34E493D4806F0ACFA06
:1088100023780BB34C493D4802F06EFC3B4903A85A
:1088200006F07AF9002103AA0846FEF77DFF03A8A7
:1088300006F02CF94549354802F05EFC334903A89F
:1088400006F06AF903AA00210120FEF76DFF03A8D4
:1088500006F01CF9FEF782FFFFF71AFE3C4C227867
:1088600062B13C4A3C480123002106F0ACF86A683A
:1088700022B100233848194606F0AFF80023374AE2
:108880003548012106F09FF8237833B1344805F0CC
:108890007EFF10B9334805F0B5FE214A214918483A
:1088A00006F06CFA3049164806F068FA1F49144879
:1088B00006F064FA64200FF07DFF01212B4806F0DA
:1088C00080FA2B4805F088FE2A4805F084FF2848E6
:1088D00005F07EFE28490246094806F04FFA254871
:1088E00005F075FF24490246054806F047FA06B030
:1088F000BDE8F087FFF762FDB0E7FFF739FEADE7AF
:108900001C1E0020E90E0020C8080308EF0E0020FE
:108910007C1E0020141F0020D11E00203B050308F0
:10892000FC07030800080308DE08030839290308C8
:10893000EC08030813090308410903086B0903083D
:108940000800002090090308B1090308C3090308BF
:10895000040000202D820008D51E0020C1770008E9
:10896000E31E0020D81E0020D30903086D1E00203E
:10897000121F0020FB1E0020E109030810B598B06B
:108980001446A8490EA806F0C7F80023CDE9143311
:10899000CDE91633636E012B06D1A3492068FDF79C
:1089A000EFFB18B102241EE2002BFBD19F49A04827
:1089B000A04C06F0E3F9A0499D4806F0DFF96420D9
:1089C0000FF0F8FE9D4B227A9D4953F822209848DB
:1089D00006F0D4F99849964806F0D0F964200FF0D3
:1089E000E9FE984911A805F0ADFF11A90EA806F0FF
:1089F000A5F811A806F04AF80EA806F0E1F80E9ABC
:108A000091498B4806F0BAF98B49894806F0B6F9C6
:108A100064200FF0CFFE8D4911A805F073FF119A65
:108A20008B49834806F0AAF911A806F02FF882496D
:108A30007F4806F0A3F964200FF0BCFE4FF47A7370
:108A400062688449B2FBF3F2794806F097F97A49F3
:108A5000774806F093F964200FF0ACFE7E4805F0ED
:108A6000B6FE7E4B7E4953F820200446704806F03F
:108A700085F971496E4806F081F964200FF09AFE7D
:108A8000012C40F0B681774805F081FE764B774A9D
:108A90007749002808BF1A46654806F06FF966490D
:108AA000634806F06BF964200FF084FE714805F00E
:108AB00073FE7149024604465D4806F05FF95E495F
:108AC0005B4806F05BF964200FF074FE6B4B6C4959
:108AD00053F82420564806F051F95749544806F0F7
:108AE0004DF964200FF066FE664805F049FE044625
:108AF000002800F0D78064494D4806F03FF94E4900
:108B00004B4806F03BF964200FF054FE082214A9EC
:108B10005E4805F014FE9DF8573005939DF85630D9
:108B200004939DF8553003939DF8543002939DF8BB
:108B3000533001939DF852309DF8502054490093D2
:108B40003B489DF8513006F019F93B49384806F08A
:108B500015F964200FF02EFE082214A94D4805F0E7
:108B6000C2FD9DF8573005939DF8563004939DF84B
:108B7000553003939DF8543002939DF85330019380
:108B80009DF852309DF850204349009328489DF8A5
:108B9000513006F0F3F82849254806F0EFF8642034
:108BA0000FF008FE102214A93C4805F0A5FD9DF821
:108BB0005F300D939DF85E300C939DF85D300B9304
:108BC0009DF85C300A939DF85B3009939DF85A300C
:108BD00008939DF8593007939DF8583006939DF8F7
:108BE000573005939DF8563004939DF85530039304
:108BF0009DF8543002939DF8533001939DF8523004
:108C000000939DF850209DF851302549084806F002
:108C1000B5F80949064806F0B1F864200FF0CAFD1E
:108C20000024E0E03A290308A6480308F5090308F0
:108C30001C1E0020080000203829030850000020D6
:108C4000040A0308AC1E0020120A0308701E00204C
:108C50001D0A0308290A0308FB1E00201400002037
:108C6000390A0308E31E0020EA0903082A2603083C
:108C7000490A0308F91E0020540A030820000020B6
:108C80005F0A0308E21E00206A0A0308DD1E0020B6
:108C9000740A0308D91E00209E0A0308DA1E002069
:108CA000C80A03089149924806F068F8914990482B
:108CB00006F064F864200FF07DFD102214A98E48A0
:108CC00005F023FD9DF85F300D939DF85E300C9309
:108CD0009DF85D300B939DF85C300A939DF85B30F6
:108CE00009939DF85A3008939DF8593007939DF8E1
:108CF000583006939DF8573005939DF856300493ED
:108D00009DF8553003939DF8543002939DF85330ED
:108D100001939DF852309DF8502078490093744893
:108D20009DF8513006F02AF87249714806F026F88D
:108D300064200FF03FFD102214A9714805F008FDD2
:108D40009DF85F300D939DF85E300C939DF85D307B
:108D50000B939DF85C300A939DF85B3009939DF866
:108D60005A3008939DF8593007939DF85830069370
:108D70009DF8573005939DF8563004939DF8553073
:108D800003939DF8543002939DF8533001939DF85E
:108D900052309DF850205B49009355489DF8513062
:108DA00005F0ECFF5349524805F0E8FF64200FF04E
:108DB00001FD042214A9544805F0B0FC9DF853307D
:108DC00001939DF8523000939DF850209DF851304A
:108DD0004E49474805F0D2FF4649454805F0CEFFC9
:108DE00064200FF0E7FC0EA805F050FE204618B0F6
:108DF00010BD4748002C52D105F0CBFB4549024637
:108E00003B4805F0BBFF3B49394805F0B7FF6420FC
:108E10000FF0D0FC404805F0BEFB40490246344804
:108E200005F0ACFF3349324805F0A8FF64200FF08D
:108E3000C1FC3B4805F0B1FB3A4902462C4805F01D
:108E40009DFF2C492A4805F099FF64200FF0B2FCE1
:108E5000354805F0A4FB35490246254805F08EFF4C
:108E60002449234805F08AFF64200FF0A3FC304812
:108E700005F097FB2F4902461D4805F07FFF1D496D
:108E80001B4805F07BFF64200FF094FC2A4805F096
:108E90008AFB2A490246164805F070FF9CE705F058
:108EA00078FB1C490246124805F068FF114910483A
:108EB00005F064FF64200FF07DFC214805F084FB81
:108EC000204902460A4805F059FF0A49084805F0BA
:108ED00055FF64200FF06EFC1B4805F077FB1B4923
:108EE0000246034805F04AFF93E600BF120B030851
:108EF0001C1E002038290308DB1E00201B0B030862
:108F0000DF1E0020660B0308DC1E0020B00B0308E8
:108F1000071F0020CB0B0308081F0020DA0B0308F3
:108F2000091F0020E20B03080A1F0020EA0B0308B8
:108F30000B1F0020F20B03080C1F0020070C030876
:108F4000101F0020150C0308111F0020220C03081D
:108F500007B503230193054B0093054B054A0648CB
:108F6000194605F00FFD03B05DF804FB9990000869
:108F7000300C0308380C0308D21E002007B5032369
:108F80000193054B0093054B054A0648194605F029
:108F9000F9FC03B05DF804FBE99100088B0C0308B1
:108FA000900C0308D21E002007B502230193054B45
:108FB0000093054B054A0648194605F0E3FC03B04B
:108FC0005DF804FB7D890008D80C0308DF0C03085A
:108FD000D21E00201FB5AA238DF80430254B264948
:108FE0005A6802921B7A254A25488DF80C3005F004
:108FF000C5FE9DF804202349214805F0BFFE224903
:109000001F4805F0BBFE64200FF0D4FB1B4A1A4931
:109010001B4805F0B3FE029A1C49194805F0AEFE44
:109020001949174805F0AAFE64200FF0C3FB134A44
:109030001149134805F0A2FE9DF80C201449104870
:1090400005F09CFE10490E4805F098FE64200FF0D4
:10905000B1FB10480C2301AA002105F0AAFC28B995
:1090600001460C230B4801AA05F0A3FC05B05DF8EE
:1090700004FB00BF0800002000080308F60C0308EA
:109080001C1E0020FD0C030839290308100D0308DD
:109090002E0D0308D31E0020536E012B70B50E4613
:1090A000154646D143491068FDF76AF8044698B959
:1090B000414B42495A6842484FF47A73B2FBF3F38A
:1090C000324605F05BFE3F493D4805F057FE6420FF
:1090D0000FF070FB204670BD3B4A3C49384805F014
:1090E0004DFE2A683A49364805F048FE3949344869
:1090F00005F044FE64200FF05DFB2D682846FDF767
:1091000049F80024844218D02B5D303B092B12D93A
:109110002D4A2E492A4805F031FE2F49284822467B
:1091200005F02CFE2B49264805F028FE64200FF0A0
:1091300041FB0224CEE70134E4E70A22002128465D
:1091400002F0B0F8204A21491B4D04461C4805F0A6
:1091500015FE224621491A4805F010FE1D491848FF
:1091600005F00CFE64200FF025FB4FF47A70164AD0
:109170001649444312486C6005F000FE6A681849BD
:109180000F4805F0FBFD13490D4805F0F7FD64207D
:109190000FF010FB1348002105F029FC6A6822B18A
:1091A00000231048194605F018FCFFF713FF0024B0
:1091B00090E700BFA648030808000020440D0308FC
:1091C0001C1E002038290308F60C030800080308B9
:1091D0004B0D030839290308600D03086F0D0308C0
:1091E000860D0308D51E0020536E012B70B50E4668
:1091F000154601D0022413E05A491068FCF7C0FF5D
:10920000044678B9584B59491B7A5948324605F0FB
:10921000B5FD5849564805F0B1FD64200FF0CAFA73
:10922000204670BD544A5549514805F0A7FD2A68AB
:1092300053494F4805F0A2FD52494D4805F09EFDA7
:1092400064200FF0B7FA2D682846FCF7A3FF00242E
:10925000844217D02B5D303B092B11D9464A474930
:10926000434805F08BFD22464749414805F086FDFD
:1092700044493F4805F082FD64200FF09BFAB9E7AE
:109280000134E5E70A220021284602F00BF8364EA9
:10929000394A3A49347A0546354805F06FFD2A4681
:1092A0003A49334805F06AFD3649314805F066FD14
:1092B00064200FF07FFA022D9CD8A54201D1002432
:1092C000AEE71CB9012D04D0012413E0012CFBD121
:1092D00085B9294A2949264805F050FD2C492448DA
:1092E00005F04CFD2749224805F048FD64200FF0A9
:1092F00061FA0024204A21491D48357205F03EFDDF
:10930000327A24491A4805F039FD1E49184805F0FB
:1093100035FD64200FF04EFAFFF75CFE337A012B27
:1093200019D0022B1AD00BB9FFF7B2F8002CC6D017
:1093300019490F4805F022FD0E490D4805F01EFDA4
:1093400064200FF037FA41F288300FF033FA1348F7
:1093500005F00EFBB3E7FFF731F8E7E7FFF708F991
:10936000E4E700BFA648030808000020970D0308A3
:109370001C1E002038290308F60C03080008030807
:109380004B0D030839290308600D03089D0D0308E0
:10939000B00D0308CA0D0308DC0D03086C1E002085
:1093A0007FB50025AA238DF8043001AA2946484834
:1093B00002950C238DF80C5005F0F1FA0646454A4B
:1093C000454946486EB905F0D9FC4549434805F082
:1093D000D5FC4449414805F0D1FC64200FF0EAF97E
:1093E0003AE005F0CBFC9DF804203F493B483F4C58
:1093F00005F0C4FC3B49394805F0C0FC64200FF07F
:10940000D9F9344A3449354805F0B8FC029A38494C
:10941000324805F0B3FC3349304805F0AFFC642016
:109420000FF0C8F99DF80430AA2B18D0294A2A4910
:109430002A4805F0A3FC029A2E49284805F09EFC14
:109440002849264805F09AFC64200FF0B3F96560BE
:109450002572FFF7BFFD2E46304604B070BD029B5B
:1094600063609DF80C30022B30D91A4A1A491B4808
:1094700005F084FC9DF80C201F49184805F07EFC7F
:109480001849164805F07AFC64200FF093F925720C
:10949000FFF7A0FD0F4A1049104805F06FFC626805
:1094A00016490E4805F06AFC0E490C4805F066FCAA
:1094B00064200FF07FF9074A0749084805F05EFC71
:1094C000227A0F49054805F059FC82E72372E1E74B
:1094D000D31E0020F60C0308000803081C1E002001
:1094E000F90D030839290308210E0308080000209C
:1094F000300E0308480E03087D0E0308980E03087B
:10950000B00E0308704700207047000010F0800F75
:109510000B4A02D100231370704713781070C22BCE
:109520000CD0C32B03D0822B04D00020704740F016
:10953000C0007047AC280CBF80200020704700BFDF
:1095400000100020F8B504460846238CC3B10D294D
:1095500016D0E36A9847054690B1628C268CA38C9E
:10956000E18CB2420ED28B420ED2A36A9854638C25
:109570000A2803F10103638402D1A38C0133A3847D
:109580000120F8BD8B4201D3013BA384002399B293
:109590008A4213D9A06AC75C01310A2F89B203F14C
:1095A0000103F4D1521A92B26284014401F05AF8D4
:1095B000236829461B6820469847E1E7B24224BF4A
:1095C00000236384F4E7000009490160802141829F
:1095D000084941614FF4807101830749C16100224C
:1095E00006494260C0E902220274C162704700BFAE
:1095F000E4190308400000042E0F03080D9500082D
:10960000002370B5C0E9083383620368DB69044650
:109610009847054610B90025284670BDA368F3B1E8
:10962000E368002BF8D12368E68A5B6920469847F7
:10963000304401F007F82368E0605B6920469847F2
:10964000E6680644E660002EE6D12368A5685B69FB
:1096500020469847281A00F0FDFF3546DCE72368CE
:10966000E68A5B6920469847304400F0EBFF2368A8
:10967000A0605B6920469847A3681844A060002852
:10968000CED1C8E738B5856804463DB103685B694B
:109690009847281A00F0DEFF0023A360E56845B173
:1096A000236820465B699847281A00F0D3FF0023FF
:1096B000E360A06A18B100F0CDFF0023A36238BDBB
:1096C00010B5034B03600446FFF7DCFF204610BDD6
:1096D000E419030841767047002930B524DB448A39
:1096E000A14221DA002A1FDB838A9A421CDA437ED8
:1096F000012B0FD0022B18D0B3B9D31004FB0311E8
:10970000806802F0070201239340425C22EA0302D0
:10971000425409E0D510806804FB051102F00702ED
:109720009340425C1343435430BDD31004FB0311F8
:109730008068012302F0070203FA02F2435C5A40F8
:10974000E6E72DE9F74FBDF93070A7EB0208A3EB70
:109750000109B8F1000FB8BFC8F10008B9F1000F56
:10976000B8BFC9F10009C84583460C46154604DD5B
:109770001A462C463B460D4617469C4205DD2A46B6
:109780003D46174622461C4613461E1BB2B2A7EBA7
:10979000050A0092C6F3C032BAF1000F02FA86F64B
:1097A000B8BFCAF1000A7610BD42B4BF01274FF01E
:1097B000FF379C4218DCC845CBBF294621462246CC
:1097C0002A46A6EB0A0658460193FFF785FFB1B279
:1097D00036B2002E019B04DA009A3D4456182DB291
:1097E00036B2013424B2E4E703B0BDE8F08F0029BB
:1097F000F0B571DB458AA9426EDA002ABEBF9B181C
:109800001BB20022848A9E18A642C4BFA31A1BB2B0
:10981000002B61DDD410866805FB041112F00702ED
:1098200006EB01056CD0C2F10802FF27D2B29A42C2
:1098300047FA02F4C8BFA2EB030C6FEA0404C8BFE6
:1098400047FA0CF7E4B2C8BF3C40477E012F06D070
:10985000022F26D037B9775C27EA040401E0775C51
:109860003C4374549A4237DC9B1A1BB2428A072B42
:1098700015442FDD427E012A16D9022A2DD003F08D
:10988000070201239340417EDBB25A1E0129D2B266
:109890002FD0022931D0F9B92A785B4213402B70BE
:1098A0001AE0775C7C40DCE75242D2B219462A705B
:1098B000448A083925448CB2072C09B2F7D89BB2E8
:1098C000A3F10802C2F3CC02C2EB423203EBC203A3
:1098D000083B1BB2002BD2DCF0BD1A462978C943E5
:1098E0002970418A083A0D4491B2072912B2F5D87D
:1098F000E5E72B781A432A70EEE72B785A40FAE70F
:10990000072BB7DCBBE7F8B5BDF9187015460C4658
:10991000CE18B44207DA21463B462A460134FFF707
:1099200066FF24B2F5E7F8BD2DE9F04F044617466F
:10993000227E8DB09846C369BDF85C505878022AE3
:109940000E4608D0032A03D0012A07D14E1B04E09B
:10995000A7EB50073FB2A6EB550636B2F54200F131
:10996000E580628A964200F3E180F84200F1DE80F1
:10997000BA42C0F2DB809A78DB7802920138013378
:10998000C0109B0001300793C3B203930693FB10F2
:109990000893BDF8583007F0070A43440993CAF109
:1099A00008034FF0000B0193099B434500F0BE8074
:1099B00018F8011B029B8B42F6D8C91AC9B24FF0A6
:1099C000040EE0691EFB01E311FB0EF510F803C065
:1099D0000EFB01030EFB01015B7991F80790CDF8B6
:1099E00010900CEA0301FF2900F09B80A18A8F42AE
:1099F00000F397800BEB06018AB20FFA81FE09FA99
:109A000081F100290592C0F28C80618A8E4500F3B5
:109A100088800544A97911B9069A49465143079AA5
:109A2000134403EB0C2310FA83F34FF000090A935D
:109A30001FFA89F38B4274D2059A039BB9FBF3F3A7
:109A4000D018039AB4F812C002FB1393089A134477
:109A500013FB0CF385B213FA80F000B2002854DB3C
:109A6000E38A984251DA2DB2002D4EDB65454CDA7F
:109A70000A9B13F80950637E012B0BD0022B2ED0CA
:109A800093B9D4F808E01EF8003005FA0AFC23EA7E
:109A90000C0307E0D4F808E01EF8003005FA0AFCD1
:109AA00043EA0C030EF80030638AB4F816C0ACEB3E
:109AB000030C604525DA94F819C0BCF1010F17D0EA
:109AC000BCF1020F24D0BCF1000F1AD11844A368D6
:109AD000019A13F800C015412CEA050510E0D4F8EE
:109AE00008E01EF8003005FA0AFC83EA0C03D9E707
:109AF0001844A368019A13F800C0154145EA0C0503
:109B00001D540B9104F07BFF0B9909F101098FE7BC
:109B10001844A368019A13F800C0154185EA0C05A2
:109B2000EEE7049B9B441FFA8BFB3DE70DB0BDE8BD
:109B3000F08FF0B5C5690020AF7803464FF6FF7C83
:109B4000013A92B262450DD08E5CF41B05EB8404A1
:109B50000A2EE47923449BB2F2D1984238BF1846CA
:109B60000023EDE7984238BF1846F0BD01767047F4
:109B7000C16170470368AF219B6918470368AE2134
:109B80009B6918472DE9F0411D46036804460E46BF
:109B90009B69D921174698472368394620469B6917
:109BA0009847236820469B6981219847236831465E
:109BB00020469B699847236820469B69DB2198478C
:109BC0002368294620469B699847236820469B695D
:109BD000A4219847236820469B69A62198472368BB
:109BE00020469B69BDE8F041AF2118470000000006
:109BF00070B5054608460C46FCF77CFC0EA3D3E97D
:109C00000023FCF7E1FC23060CD4FCF7B5FF002C85
:109C1000C1B214BFF1220022E3082846BDE870401B
:109C2000FFF7B0BF0022064BFCF716FBFCF7A4FFC2
:109C3000F122C1B2F0E700BF23DBF97E6ABCF23F3C
:109C400000804540C28A8068002100F019BD10B52F
:109C50000446FFF7F7FFE28AE068012100F010FDFB
:109C6000236820461B69BDE810401847012901748C
:109C70000CD002290ED019B980234382402383825D
:109C8000428A838A5343DB10C38270478023438216
:109C90002023F4E7002A08BF8022002B428208BF5D
:109CA0004023ECE7037C022B10B5044600F09580BE
:109CB0000368AE219B6998472368D5219B6920469C
:109CC00098472368F0219B69204698472368A8217C
:109CD0009B6920469847217D236801399B69C9B259
:109CE000204698472368D3219B69204698472368DC
:109CF00000219B6920469847236840219B692046A4
:109D0000984723688D219B69204698472368142132
:109D10009B6920469847236820219B6920469847E5
:109D2000236800219B69204698472368A0219B69EE
:109D3000204698472368C0219B692046984723689E
:109D4000DA219B6920469847227C2368002A3AD171
:109D50009B69122120469847236881219B692046F0
:109D60009847227C2368002A32D19B69CF21204664
:109D70009847236820469B69D92198472368204645
:109D80009B69F1219847236820469B69DB2198470E
:109D9000236820469B6940219847236820469B6999
:109DA000A4219847236820469B69A62198472368E9
:109DB00020469B692E219847236820469B69BDE871
:109DC0001040AF211847012AC6D19B690221C1E783
:109DD000012ACED19B698F21C9E710BD38B5054650
:109DE000FFF70EFC044628B12846FFF75BFF284624
:109DF000FFF72DFF204638BD2DE9F843B1F8088064
:109E000008F10106B6B2074630460D4600F01AFCCE
:109E1000044618B92C682046BDE8F883324601464E
:109E20000023284604F0B4FE00252E46ABB2984528
:109E300004EB060909D9FB6A605D984718B1013641
:109E4000B6B289F800000135F0E7002389F8003048
:109E5000E1E700002DE9F04F144687B0C2690646DD
:109E6000894603A81946577804F077FE03A93046BF
:109E7000FFF7C2FF804603A804F008FE337E032BE1
:109E8000BA4631D10022134691B2013218F80110BE
:109E900021B10A2908BF01339BB2F5E75F43C7F33D
:109EA0004F071549DFF850B0404601F02DF9E41B8B
:109EB0000546A4B2D5B12846FCF76CF987B229460D
:109EC0003A463046FFF735FE2B4622B2CDE9007008
:109ED00049463046FFF728FD5946002001F014F9A5
:109EE00054440546A4B2E5E70027DAE7404600F00F
:109EF000B1FB07B0BDE8F08F3929030803F04EBC71
:109F000003F051BC7047000070B5002386B0CDE966
:109F100004334FF0B0420F4DD16C41F00201D164D7
:109F2000D26C039302F002024FF48056009201A912
:109F30002846CDE90163009A10F0E0FF314628463B
:109F400011F0FCF831460446284611F083F820460B
:109F500006B070BD000400480D2070474FF0B043BC
:109F600082B0DA6C0243DA64DB6C18400190019B2A
:109F700002B070472DE9F04186B01422002101A8FB
:109F800000F07EFB0220FFF7E9FF144D144F042080
:109F9000FFF7E4FF4FF4807601230024CDE901634D
:109FA00001A903232846CDE903434FF4005810F0DC
:109FB000A5FF01A93846CDF8048010F09FFF224686
:109FC0004146384611F0C0F828462246314611F085
:109FD000BBF8204606B0BDE8F08100BF0004004891
:109FE00000080048032810B50ED8012810D868B919
:109FF00002460B484FF4807111F0A6F80022094880
:10A000004FF4005111F0A0F8002010BD0122F0E73C
:10A01000002203484FF4807111F096F80122EEE718
:10A0200000040048000800480220704700207047E4
:10A030000120704710B59AB04822002108A800F00E
:10A040001FFB1822002102A800F01AFB11F038FFB4
:10A050004FF0B0420024D2F8903023F01803C2F839
:10A060009030D2F8003423F4C06343F40073C2F894
:10A070000034D2F80034119403F4C06301934FF418
:10A080008072019B0C922E234022089381230B9314
:10A090000D920123B02208A8CDE90E34109312923C
:10A0A000139412F05FF808B103F0A2FD4F230221D0
:10A0B00002A8CDE90234CDE90444CDE9064412F00A
:10A0C000F1FA08B103F094FD1AB010BD13B503788E
:10A0D000082B11D8DFE803F0128287108E8E05104E
:10A0E0009200047920460DF0AFF920460DF056F9A4
:10A0F000002120460DF0B0F902B010BD00200DF097
:10A10000A3F9012839D101200DF09EF9012804D0CE
:10A1100001200EF065FF00283DDC02200DF094F9CF
:10A120000128E9D002200EF05BFF0028E4DD0122C7
:10A1300001A902200EF01EFE02200DF085F9002874
:10A14000F0D102200EF02AFF00283FD19DF8041024
:10A1500002200DF08FF8E5E7012201A900200EF0A2
:10A1600009FE00200DF070F9044630B90EF016FF1C
:10A1700048B99DF804100DF07DF800200EF030FF76
:10A180000028E9DCBFE70128F7D19DF8041020463C
:10A190000EF05CFEF1E7012201A910460EF0EAFD87
:10A1A00001200DF051F90028B2D101200EF0F6FE89
:10A1B00028B99DF8041001200DF05CF8A8E70128EB
:10A1C000A6D19DF804100EF041FEA1E70128A9D107
:10A1D0009DF8041002200EF039FEA3E717F0F2FA02
:10A1E00005F0E2FE88E7074B1B68002B84D040682F
:10A1F000984781E740680EF0A1FF7DE740680EF0C8
:10A2000041FC79E76468002030B5284B284A9A6001
:10A2100085B00FF009F8FFF70DFF4FF0B0430B20AA
:10A220009A6C42F004029A649A6C02F0040203925F
:10A23000039A9A6C42F001029A649B6C002203F02C
:10A24000010311460293029B0FF056FC0B200FF006
:10A2500085FC0EF055FF0EF055FA0DF0FFF90024C5
:10A2600001460546234603220120CDE900440EF0B5
:10A27000C3FC2346032229460220CDE900440EF008
:10A28000BBFC0DF099FA06F0BFFCE5B228460DF0D4
:10A29000DBF810B928460DF081F80134032CF4D115
:10A2A00005B0BDE830400EF00FBF00BF00ED00E08C
:10A2B000006000080EF016BFF7B5FFF7A5FF4FF0DE
:10A2C000B0432E4EDA6C2E4C42F00202DA64DB6CA4
:10A2D00003F002030193019B08F0FAFE294B341BA3
:10A2E0001427474300251C44BD4223D302F055FBED
:10A2F000FFF70AFE98B3244804F0E2FD234B2448FC
:10A300001A68244B196804F0DBFD23480EF0F6FCB4
:10A3100005F076F8012824D0022824D010B91F486F
:10A320000EF0ECFC1E4C0EF0DDFE2378EBB902F0D3
:10A3300036FBF8E76A46042160190EF055FA6946C3
:10A340003246042312F801CB11F8010B844518BFE3
:10A3500002F8010C013BF5D104350436C4E711487D
:10A36000CAE71148DCE71148DAE70DF0B3F8002836
:10A37000D9D000200EF00AFCD5E700BFFC03002076
:10A3800000000020584F0308041A0308C8000020EA
:10A390001A1A0308E00000202A1A03083E1A0308CC
:10A3A000011000200F1A03084A1A0308551A03085F
:10A3B000054808B50823036012F042FD18B1BDE856
:10A3C000084003F015BC08BD006100204FF0B04309
:10A3D00007B55A6E42F001025A665B6E002203F026
:10A3E0000103019311463220019B0FF085FB3220BF
:10A3F00003B05DF804EB0FF0B1BB0000024B9868AE
:10A40000024BC04318607047002800400410002031
:10A41000014B1868704700BF04100020034B044A2A
:10A420009B681068DB43181A704700BF0028004083
:10A4300004100020034B187810B1034B9868C043F8
:10A44000704700BF02100020002800400320704722
:10A4500008B501464FF47A720023C003490CFCF79B
:10A460007FFE08BD4FF47A72A0FB0223D00B40EAB6
:10A470004340704710B5074B074C0122DA654FF493
:10A480008071204612F00CFA4FF0FF332363002056
:10A4900010BD00BF002800404C6300200246002190
:10A4A000014812F012BC00BF4C630020024601219B
:10A4B000014812F00ABC00BF4C63002010B58CB0FC
:10A4C0002C220021044601A800F0DAF8FFF7D2FFA1
:10A4D0000C4B186800230444089306934FF0005374
:10A4E000E4430793084802944FF48073012201A9C2
:10A4F0000B9312F0EBFA08B103F07AFB00200CB0DA
:10A5000010BD00BF041000204C6300200C4B70B540
:10A510009C68064602210B4812F0DEFBE443002251
:10A520001219C2F30E044FF47A71A4FB014540F1F5
:10A530000003E40BD00B348040EA434070BD00BF01
:10A54000002800404C6300200148002112F0C4BBE9
:10A550004C6300200148012112F0BEBB4C63002077
:10A56000F8B5114E3578E5B9104C2A4629464FF01A
:10A57000FF372846276303F07BF8FFF77BFF4FF494
:10A580008071204612F08CF92046276312F048FBB8
:10A590002A460221204612F098FBFFF72FFF0123E5
:10A5A00033700020F8BD00BF021000204C63002073
:10A5B00015F0C8BE10B5064C0221204612F08CFBE7
:10A5C0000221421C2046BDE8104012F07EBB00BFB5
:10A5D0004C6300200B460146184600F001B800000D
:10A5E00010B504460448134620B10A46022021460D
:10A5F000AFF3008010BD00BF0000000070B50D4D2E
:10A600000D4C641BA4100026A64209D10B4D0C4C26
:10A6100025F072F9641BA4100026A64205D170BD76
:10A6200055F8043B98470136EEE755F8043B984748
:10A630000136F2E7384F0308384F0308384F030854
:10A640004C4F0308024B0146186800F06FB800BF7A
:10A65000E4000020024B0146186800F019B800BF62
:10A66000E40000200A44914200F1FF3300D170471A
:10A6700010B511F8014B03F8014F9142F9D110BD0B
:10A6800002440346934200D1704703F8011BF9E7E7
:10A6900038B50546002945D051F8043C0C1F002B65
:10A6A000B8BFE41801F06AFC1F4A1368104633B9BA
:10A6B000636014602846BDE8384001F065BCA342E1
:10A6C0000BD921686218934204BF1A685B68636003
:10A6D00004BF521822600460ECE71A465B680BB1B5
:10A6E000A342FAD911685018A0420BD12068014446
:10A6F000501883421160DDD118685B6853600144D3
:10A700001160D7E702D90C232B60D3E7206821180A
:10A710008B4204BF19685B68636004BF091821603D
:10A720005460C7E738BD00BF08100020F8B5CD1C45
:10A7300025F0030508350C2D38BF0C25002D0646E5
:10A7400001DBA94203D90C2333600020F8BD01F0DE
:10A7500015FC21490A6814469CB9204F3B6823B96F
:10A760002146304600F098FC38602946304600F01B
:10A7700093FC431C23D10C233360304601F004FCCE
:10A78000E3E723685B1B17D40B2B03D923601C441E
:10A79000256004E06368A2420CBF0B605360304642
:10A7A00001F0F2FB04F10B00231D20F00700C21A98
:10A7B000CCD01B1AA350C9E722466468CCE7C41C5E
:10A7C00024F00304A042E3D0211A304600F064FCD8
:10A7D0000130DDD1CFE700BF081000200C100020B1
:10A7E0002DE9F04788B0002B1F461446B8BF03F18F
:10A7F0000043129A109DDDF84CA0B6BF1F460023FF
:10A800002D231370149B23F02008B8F1460F05D0B8
:10A81000B8F1450F00D10135022300E0032307AA58
:10A82000049206AACDE902A2CDE9003522463B46B4
:10A8300000F0CEFDB8F1470F064602D1119BDB07B1
:10A8400022D5B8F1460F06EB050910D13378302B2D
:10A850000AD10022002320463946FCF71DF918B919
:10A86000C5F10105CAF80050DAF800309944002219
:10A87000002320463946FCF70FF908B1CDF81C90AB
:10A880003022079B4B4507D3079B159A9B1B3046ED
:10A89000136008B0BDE8F087591C07911A70F0E703
:10A8A000F7B503460029B8BF494203F8022BB4BFED
:10A8B0002D222B22092942702ADD0DF10704A4461E
:10A8C0000A27A6460A4691FBF7F607FB1615303510
:10A8D000632A04F1FF340EF8015C3146F1DC3031BB
:10A8E000AEF1020504F8011C441C294661450AD357
:10A8F0000DF10902A2EB0E02654588BF0022134448
:10A90000181A03B0F0BD11F8012B04F8012FEDE780
:10A91000302330318370C170031DF1E72DE9F04F12
:10A9200091B00C46DDF8688016461F46054601F0DA
:10A9300021FB036809931846FBF72CFC00230E93B8
:10A94000D8F800300A90073323F0070303F1080218
:10A9500094F81890D4F800B0C8F80020D3E9002388
:10A96000C4E91223D4E9128A2AF000430B930B990D
:10A970009C4B4FF0FF324046FCF7C0F870BB994B40
:10A980000B994FF0FF324046FCF79AF830BB00229B
:10A99000002340465146FCF789F810B12D2384F876
:10A9A0004330914B9148B9F1470F94BF9846804688
:10A9B000032323612BF0040323604FF0000A009768
:10A9C00033460FAA2146284600F0D2F9013040F064
:10A9D0008F804FF0FF3011B0BDE8F08F42465346F4
:10A9E00040465146FCF78AF840B1BAF1000FBCBFAF
:10A9F0002D2384F843307E487E4BD4E763685A1C8D
:10AA000009F0DF0142D106236360002206920EAAFC
:10AA1000CDE904920DAA4BF4806303920DF1330249
:10AA2000CDE90132236063680093424653462846CD
:10AA30000B91FFF7D5FE0B99472980460D9908D158
:10AA4000C81C02DB6368994240DDA9F102095FFA84
:10AA500089F9B9F1650F1FD801394A4604F1500050
:10AA60000D91FFF71DFF0E9A1318012A82462361EC
:10AA700002DC2268D20701D5013323619DF833300F
:10AA8000002B9CD02D2384F8433098E74729BCD174
:10AA9000002BBAD10123B7E7B9F1660F18D100290D
:10AAA00063680BDD216113B92268D00702D5013339
:10AAB0000B442361A1654FF0000ADFE713B9226858
:10AAC000D20701D50233F4E70123F2E74FF067091B
:10AAD0000E9B994205DB23682161D807EAD54B1C00
:10AAE000E7E70029D4BFC1F1020201221344E0E7E5
:10AAF00023685A0507D42369424631462846B84799
:10AB000001302BD165E7B9F1650F40F2DC80D4E963
:10AB1000120100220023FBF7BFFF002833D0364A82
:10AB2000012331462846B84701303FF452AFDDE9F2
:10AB30000D239A4202DB2368D8070FD5DDE90923EC
:10AB400031462846B84701303FF443AF4FF0000884
:10AB500004F11A090E9B013B434509DC23689B075E
:10AB600000F10181E0680F9B9842B8BF184632E7B8
:10AB700001234A4631462846B84701303FF429AF01
:10AB800008F10108E6E70D9B002B37DC1A4A012388
:10AB900031462846B84701303FF41BAFDDE90D23AD
:10ABA000134302D12368D907D8D5DDE909233146FB
:10ABB0002846B84701303FF40CAF4FF0000904F1CC
:10ABC0001A0A0D9B5B424B4501DC0E9B94E7012367
:10ABD000524631462846B84701303FF4FAAE09F1F3
:10ABE0000109EEE7FFFFEF7F951B0308991B0308A0
:10ABF000A11B03089D1B03089C4803080E9AA36D24
:10AC00009A42A8BF1A46002A914637DC4FF0000B43
:10AC100029EAE97904F11A02D4F858A0AAEB090349
:10AC20005B4533DCDDE90D239A423BDB2368DA0721
:10AC300038D40E9A0D99A2EB0A03A2EB01099945AB
:10AC4000A8BF9946B9F1000F34DC4FF0000829EA9B
:10AC5000E97904F11A0ADDE90D239B1AA3EB090334
:10AC600043457FF77BAF0123524631462846B8471C
:10AC700001303FF4AEAE08F10108ECE7134631466F
:10AC800042462846B8470130C0D1A2E601233146EA
:10AC900028460B92B84701303FF49BAE0B9A0BF15C
:10ACA000010BB9E7DDE9092331462846B8470130F1
:10ACB000BFD18EE64B4608EB0A0231462846B8471C
:10ACC0000130C2D185E60E9A012A01DCDB0737D5B7
:10ACD0000123424631462846B84701303FF479AE59
:10ACE000DDE9092331462846B84701303FF471AE0B
:10ACF000D4E9120100220023FBF7CEFED8B90E9B47
:10AD000008F10102013B31462846B84701300ED117
:10AD10005FE601234A4631462846B84701303FF4F2
:10AD200058AE08F101080E9B013B4345F1DC534648
:10AD300004F15002E1E64FF0000804F11A09F2E7CD
:10AD400001234246DFE701234A4631462846B847F9
:10AD500001303FF43EAE08F10108E3680F995B1A39
:10AD60004345F0DCFEE64FF0000804F11909F4E772
:10AD70002DE9F047164699468A680B69DDF8208070
:10AD80009342B8BF1346336091F8432007460C4600
:10AD90000AB1013333602368990642BF3368023336
:10ADA0003360256815F0060506D104F1190AE36839
:10ADB00032689B1AAB4226DC94F84320131E2268AB
:10ADC00018BF012392062BD404F1430249463846AA
:10ADD000C04701301ED02368E568326803F00603DF
:10ADE000042B08BFAD1AA36822690CBF25EAE575DC
:10ADF00000259342C4BF9B1AED1800261A34B542B1
:10AE00001AD1002008E00123524649463846C0477F
:10AE1000013003D14FF0FF30BDE8F0870135C6E7C0
:10AE2000E1185A1C302081F84300224494F8451060
:10AE300082F843100233C7E70123224649463846C9
:10AE4000C0470130E6D00136D9E700002DE9FF47C1
:10AE50000C469146277E0C99782F80469A4604F13D
:10AE6000430207D8622F0AD8002F00F0D880582F4D
:10AE700000F0A38004F1420684F842703AE0A7F1A2
:10AE80006303152BF6D801A050F823F0E5AE0008B7
:10AE9000F9AE000875AE000875AE000875AE000882
:10AEA00075AE0008F9AE000875AE000875AE000872
:10AEB00075AE000875AE000805B0000829AF00089F
:10AEC000E7AF000875AE000875AE000827B00008AF
:10AED00075AE000829AF000875AE000875AE000811
:10AEE000EFAF00080B681A1D1B680A6004F14206E8
:10AEF00084F842300123A3E0256808682E0600F19B
:10AF000004030AD505680B60002D03DA2D236D427A
:10AF100084F843305E480A2319E015F0400F0568B5
:10AF20000B6018BF2DB2EFE70B682568181D08608D
:10AF3000280601D51D6802E06906FBD51D88544826
:10AF40006F2F0CBF08230A23002184F84310666882
:10AF5000A660002EA2BF216821F0040121600DB976
:10AF6000002E4DD01646B5FBF3F103FB1157C75D1C
:10AF700006F8017D2F46BB420D46F4D9082B0BD1B4
:10AF80002368DF0708D5236961689942DEBF302353
:10AF900006F8013C06F1FF36921B2261CDF800A0B5
:10AFA0004B4603AA21464046FFF7E2FE01304CD152
:10AFB0004FF0FF3004B0BDE8F087354884F84570A5
:10AFC00023680E681F0656F8045B0E6014D5D90777
:10AFD00044BF43F0200323601DB9236823F02003FE
:10AFE00023601023B0E7236843F020032360782315
:10AFF000284884F84530E3E75E0648BFADB2E6E78F
:10B000001646BBE70B68266860691D1D0D60350696
:10B010001B6801D5186002E07106FBD5188000237B
:10B0200023611646BAE70B681A1D0A601E6862683B
:10B0300000213046FBF7BCF808B1801B60606368F4
:10B040002361002384F84330A8E723693246494648
:10B050004046D0470130ABD023689B0713D4E0684B
:10B06000039B9842B8BF1846A4E7012332464946DD
:10B070004046D04701309BD00135E36803995B1A05
:10B08000AB42F2DCEBE7002504F11906F5E700BF5F
:10B09000A51B0308B61B030838B5064D002304465C
:10B0A00008462B6001F052FC431C02D12B6803B10F
:10B0B000236038BD0C6100200EB400B59CB01DAB00
:10B0C000029006906FF000410948079104910949E8
:10B0D00053F8042B05910068019302A901F0CCFA02
:10B0E000029B00221A701CB05DF804EB03B070479D
:10B0F000E40000200802FFFF034611F8012B03F8CB
:10B10000012B002AF9D17047134B2DE9F0411F683C
:10B11000BC6D05460E46B4B95020FFF793FAB865EA
:10B12000C0E90044C0E90244C0E90444C0E90A445B
:10B13000C0E90C44C0E90E44C0E91044C0E912441F
:10B14000846104774462BA6D314628460123BDE824
:10B15000F04100F003B800BFE4000020F0B508B9EA
:10B16000106888B10446204614F8015B0F4617F8B2
:10B17000016B1EB965B91560284605E0B542F6D1E8
:10B18000002BF0D114600370F0BD1C460CE015B923
:10B1900014F8013B0E4616F8015BAB42F7D1002BC9
:10B1A000F3D0002304F8013C1460EDE72DE9F043EF
:10B1B0003B4E86468C4660461CF8014BA55D15F05B
:10B1C0000805F8D12D2C34D19CF800404FF001082F
:10B1D00000F1020C002B5ED0102B0CD1302C0AD1C8
:10B1E0009CF8000000F0DF0058284FD19CF8014087
:10B1F00010230CF1020C4FF0FF370025B7FBF3F7DB
:10B2000003FB07F96FEA09092846A4F13006092E65
:10B2100018D83446A34224DD002D1FDB87421DD3FE
:10B2200001D1A1451ADB00FB034001251CF8014BAD
:10B23000EBE72B2C08BF9CF80040A84608BF00F1A4
:10B24000020CC7E7A4F14106192E01D8373CE1E70B
:10B25000A4F16106192E04D8573CDBE74FF0FF3507
:10B26000E4E7002D07DA2223CEF800304FF0FF305C
:10B2700042B9BDE8F083B8F1000F00D04042002A87
:10B28000F7D00DB10CF1FF311160F2E73024002B43
:10B29000B1D10823AFE7302CA2D00A23ABE700BF1F
:10B2A000C81B030813460A46014602480068FFF718
:10B2B0007DBF00BFE40000202DE9F74F03690C6952
:10B2C000A3420746C0F28180013C01F1140800F15D
:10B2D000140505EB8403019358F8243055F8242015
:10B2E00001339A424FEA840B08EB8409B2FBF3F670
:10B2F00031D34FF0000E4046AC46F24650F8042BD6
:10B3000093B206FB03E34FEA134E9BB2AAEB03038F
:10B31000120CDCF800A006FB02E213FA8AF34FEAF3
:10B32000124E1FFA82FADCF80020CAEB124202EB3E
:10B3300023429BB243EA024381454CF8043B4FEA67
:10B34000224ADBD255F80B302BB9019B043B9D42BE
:10B350001A462ED33C61384601F045F8002824DB1C
:10B36000013628464FF0000C58F8042BD0F800E0C6
:10B3700093B2ACEB0303120C13FA8EF3C2EB1E4232
:10B3800002EB23429BB243EA0243C14540F8043B2F
:10B390004FEA224CE8D255F8242005EB840322B969
:10B3A000043B9D421A460AD33C61304603B0BDE8D7
:10B3B000F08F1268043B002ACCD1013CC7E7126829
:10B3C000043B002AF0D1013CEBE70020EEE700004F
:10B3D0002DE9F04F446A99B016461F46CDE904673F
:10B3E000DDF8948005463CB91020FFF72BF9C0E941
:10B3F000014468620460C4606B6A196851B15A689C
:10B400004A60012393408B60284600F0F7FD6B6A89
:10B4100000221A603B1EB9BF23F0004305930023AE
:10B42000C8F80030DDF81490A74BBCBF0122C8F863
:10B43000002033EA090319D1249A42F20F731360F2
:10B44000C9F31303334300F06D85269B53B99F4B1B
:10B4500023E09F4B03930833269A1360039819B097
:10B46000BDE8F08F994B03930333F5E7DDE904342E
:10B47000CDE90C34DDE90C0100220023FBF70CFBC5
:10B48000804660B1249A01231360269B002B00F0B4
:10B490004685904B269A1360013B0393DEE716AB7B
:10B4A000019317AB00932846DDE90C2301F02CF83B
:10B4B000C9F30A548346002C7ED00D9BCDF84C80F6
:10B4C000C3F31303DDE90C0143F07F5141F4401154
:10B4D000A4F2FF34804B0022FAF7BEFE74A3D3E936
:10B4E0000023FBF771F874A3D3E90023FAF7B6FE43
:10B4F000064620460F46FAF7FDFF71A3D3E9002365
:10B50000FBF762F802460B4630463946FAF7A6FECC
:10B5100006460F46FBF708FB002282460023304612
:10B520003946FBF7C3FA48B15046FAF7E3FF324613
:10B530003B46FBF7B1FA08B90AF1FF3ABAF1160F28
:10B5400057D8664B03EBCA03D3E90023DDE90C01AE
:10B55000FBF7ACFA00284ED00AF1FF3A00230F9314
:10B56000169B1C1B631E099345BFC4F10103069380
:10B57000002300234CBF09930693BAF1000F3CDB74
:10B58000099BCDF838A05344099300230A93229BCA
:10B59000092B00F2B580052BC4BF043B2293229BEC
:10B5A000A3F10203CCBF00240124032B00F2B480DA
:10B5B000DFE803F02D987AA4DDE916431C4404F279
:10B5C0003243202BC3BFC3F1400304F2124009FAF7
:10B5D00003F3C3F12003C6BF26FA00F0184306FAAE
:10B5E00003F0FAF777FF0123A1F1F871013C1393FF
:10B5F00070E70123B3E70F90B2E7069BA3EB0A03C2
:10B600000693CAF100030A9300230E93BFE70023B9
:10B610000B93239B002B00F382804FF00109CDF8A0
:10B6200020904B46CDF88C906E6A00227260042206
:10B6300002F114009842716877D9284600F0AAFCFC
:10B640006B6A30601B680393089B0E2B00F2EE8040
:10B65000002C00F0EB80BAF1000F7ADD1F4A0AF0EF
:10B660000F0302EBC303D3E900341AF4807FCDE962
:10B6700010344FEA2A145CD0194BDDE90C01D3E9F0
:10B680000823FBF7CBF8CDE9040104F00F040327EE
:10B69000134E002C4FD1DDE91023DDE90401FBF747
:10B6A000BDF8CDE904016EE00123B1E7AFF30080FE
:10B6B00061436F63A787D23FB3C8608B288AC63FB8
:10B6C000FB799F501344D33F0000F07FD11C030847
:10B6D000C81C03089D4803080000F83F001D03082C
:10B6E000D81C030800230B93239B0AEB030909F1E1
:10B6F0000103012B0893B8BF012395E70123F2E76B
:10B700000124002322930B944FF0FF390022CDF83F
:10B7100020901223239287E701230B93F4E7DDF8AF
:10B720008C90CDF820904B467EE70131716052003D
:10B730007EE70227ACE7E10708D5DDE91001D6E98D
:10B740000023FAF741FFCDE91001013764100836F4
:10B750009FE700F0A580CAF10004A44BA44E04F0BA
:10B760000F0203EBC203D3E90023DDE90C01FAF772
:10B770002BFFCDE90401241100230227002C40F007
:10B780008480002B8DD10F9B002B00F08B80DDE996
:10B790000434CDE91034DDE91001964B0022FBF7AB
:10B7A00085F900287ED0089B002B7BD0B9F1000FD3
:10B7B00038DDDDE91001904B0022FAF705FFCDE9F5
:10B7C00004010AF1FF3801374C463846FAF792FE79
:10B7D000DDE90423FAF7F8FE884B0022FAF73EFD74
:10B7E000A1F15076CDE910011196002C5DD1DDE973
:10B7F0000401834B0022FAF72FFD02460B46CDE9E8
:10B800000423109A3346FBF76FF9002840F0978223
:10B81000DDE90401109A06F10043FBF747F900281F
:10B8200040F08B82DDE90C34CDE90434179B002B0A
:10B83000C0F25181BAF10E0F00F34D816B4B03EB57
:10B84000CA03D3E90034CDE90634239B002B80F2F0
:10B85000DB80089B002B00F3D78040F06D82684BA3
:10B860000022DDE90601FAF7AFFEDDE90423FBF76C
:10B8700031F9089C2646002840F04382039F31237B
:10B8800007F8013B0AF1010A3FE2E20705D5D6E9D4
:10B890000023FAF799FE01370123641008366DE79B
:10B8A000022770E7089CD0468FE703994F4B21444D
:10B8B00012910B9903EBC403DDE9106753E90223EE
:10B8C000002946D04F490020FAF7A8FF3B463246F0
:10B8D000FAF7C2FCCDE91001039FDDE90401FBF793
:10B8E00023F90446FAF706FE02460B46DDE9040199
:10B8F000FAF7B2FC303402460B46CDE9042307F8D0
:10B90000014BDDE91023FBF7D1F8002865D1DDE913
:10B91000042338490020FAF79FFCDDE91023FBF7E8
:10B92000C5F8002840F0B680129B9F423FF47AAFE2
:10B93000DDE91001304B0022FAF746FE2E4BCDE92F
:10B9400010010022DDE90401FAF73EFECDE9040111
:10B95000C3E730463946FAF737FECDE91001129BAE
:10B96000039C1493DDE90401FBF7DEF81590FAF768
:10B97000C1FD02460B46DDE90401FAF76DFC159B9B
:10B98000303304F8013B129B9C4206460F464FF0B1
:10B99000000224D11B4BDDE91001FAF75FFC0246DF
:10B9A0000B4630463946FBF79FF8002871D1DDE998
:10B9B000102314490020FAF74FFC02460B4630468C
:10B9C0003946FBF773F800283FF42CAF149F7B1E19
:10B9D000149317F8013C302BF8D0C24649E0064BCF
:10B9E000FAF7F2FDCDE90401BCE700BF001D030832
:10B9F000D81C03080000F03F0000244000001C4059
:10BA0000000014400000E03FDDE90489039FDDE908
:10BA1000062340464946FAF701FFFBF785F804463E
:10BA2000FAF768FDDDE90623FAF7CEFD04F13006EA
:10BA30000B46024649464046FAF70EFC07F8016BF2
:10BA4000039E089BBE1BB34238D102460B46FAF751
:10BA500005FCDDE9062380468946FBF745F858BB1F
:10BA6000DDE9062340464946FBF716F808B1E10731
:10BA700022D42846594600F0C1FA00233B70249B8B
:10BA80000AF101001860269B002B3FF4E7AC1F6011
:10BA9000E4E427463B461F4613F8012D392A07D117
:10BAA000039A9A42F7D10399302208F101080A70EB
:10BAB0001A7801321A7090E7D046EBE7A14B0022CA
:10BAC000FAF782FD0022002380468946FAF7E4FF58
:10BAD00000289CD0CDE70B9A002A00F0CD80229A56
